S01400004C696E65466F6C6C6F7765722E737265633E
S113000071C000008FC000008DC000008BC00000D4
S113001089C0000008C2000085C0000083C0000041
S113002081C000007FC000007DC000007BC00000D4
S113003079C0000077C0000075C00000D5C1000081
S113004071C000006FC000006DC000006BC00000F4
S113005069C0000067C0000065C0000063C0000004
S113006061C000005FC000005DC000005BC0000014
S113007059C0000057C0000055C0000053C0000024
S113008051C000004FC000004DC000004BC0000034
S113009049C0000047C0000045C0000043C0000044
S11300A041C000003FC000003DC000003BC0000054
S11300B039C0000037C0000035C0000033C0000064
S11300C031C000002FC000002DC000002BC0000074
S11300D029C0000027C0000025C0000023C0000084
S11300E021C0000011241FBECFEFD1E2DEBFCDBF7F
S11300F000E00CBF12E0A0E0B2E0EEE7F3E100E0C4
S11301000BBF02C007900D92AE38B107D9F723E0B8
S1130110AEE8B2E001C01D92A333B207E1F7D3D138
S11301200C94BD096DCFCF92EF920F9380E0F2D281
S1130130C12CEE24E39400E021E040E855E260E0C5
S113014070E080E0EFD20F91EF90CF900895C2C598
S11301500895EAE6F0E0808181608083EC9A089A51
S11301606C9810928F0210928E02089580EC809306
S11301707C00EAE7F0E087E0808380818068808308
S1130180808180648083808186FDFDCF80917800AA
S113019090917900089584B5816884BD85B58160A6
S11301A085BD279A81B1846181B917BC089581B155
S11301B08A6A81B9089582B1886282B982B18D77E1
S11301C082B98FE097E20197F1F700C0000008952B
S11301D082B1886882B982B18D7D82B98FE097E25D
S11301E00197F1F700C00000089582B1826882B9D6
S11301F082B1877D82B98FE097E20197F1F700C061
S11302000000089582B1826282B982B1877782B98F
S11302108FE097E20197F1F700C0000008950F9373
S11302201F93CF93DF938C018EE092E0DFD51016FD
S1130230110654F4C0E0D0E0E5DFD7DFC9DFBBDF4F
S11302402196C017D107C1F782B1857582B9DF91B4
S1130250CF911F910F9108950F931F93CF93DF9325
S11302608C0188E192E0C2D51016110654F4C0E066
S1130270D0E0A1DFADDFB9DFC5DF2196C017D1071C
S1130280C1F782B1857582B9DF91CF911F910F912A
S1130290089581E08093B100809370001092B200C1
S11302A01092A1021092A00208951092B100089534
S11302B059D412D48093A2020CD48093AC02BCD340
S11302C09093A7028093A602DBD39093A502809318
S11302D0A40205D49093A9028093A80209D4909310
S11302E0AE028093AD020DD49093AB028093AA0228
S11302F008952091A4023091A50225303105CCF057
S11303004FEF429FC001439F900D112467E670E0B8
S1130310F8D467BD129A149887B51F928F9383E21D
S113032092E09F938F9351D50F900F900F900F9061
S113033008952C3F8FEF38073CF541E0429FC00100
S1130340439F900D921B112467E670E0DAD4CB0131
S1130350880F991F680F791F772314F46D5F7F4FFF
S1130360759567957595679567BD149A129887B5C5
S11303701F928F9383E292E09F938F9326D50F90E1
S11303800F900F900F90089517BC1298149887E25D
S113039092E02CC58091A6029091A7028B30910522
S11303A01CF081E090E058CF863F9F4F1CF481E021
S11303B090E035CF089585E190E00895ECE7F0E012
S11303C090818F71907E982B9083EAE7F0E0808192
S11303D080648083808186FDFDCF209178003091F8
S11303E07900822F932F08951F920F920FB60F92C8
S11303F011242F938F939F938091A0029091A10237
S113040001969093A1028093A002853B954018F039
S113041081E08093A3029F918F912F910F900FBE43
S11304200F901F9018951F920F920FB60F921124E0
S11304300BB60F922F933F934F935F936F937F93DA
S11304408F939F93AF93BF93EF93FF938CE292E0CC
S11304509F938F93BAD480918E0290918F020F90C4
S11304600F900197E9F48091920290919302892B65
S113047041F40FDF81E090E0909393028093920225
S11304800FC013DF109293021092920210928F0207
S113049010928E0281E090E09093910280939002FA
S11304A0FF91EF91BF91AF919F918F917F916F9148
S11304B05F914F913F912F910F900BBE0F900FBE04
S11304C00F901F90189578942EDE87E392E08ED4D7
S11304D03EDE3FDE4BDE5FDE6ADE80E492E086D401
S11304E0C1E01FEFD0E890919402911113C0E0DEB7
S11304F09091A202992359F0C09394022FEF89E6B8
S113050098E1215080409040E1F700C00000F1DE06
S113051041DFE9CF89E592E069D49091A202992361
S113052059F0109294022FEF89E698E1215080400F
S11305309040E1F700C000003EDF449724F485E6D4
S113054092E054D4D0CF87E792E050D480E036DFF5
S11305508436910528F481E090E061DED7BDC3CFF5
S11305608C2F2CDF8436910528F481E090E074DE32
S1130570D7BDB9CF82E022DF8436910510F417BDD0
S1130580B2CF17BCB0CF1092B90088E98093B800FD
S11305900895CF93DF93ECEBF0E024EAA9EBB0E00D
S11305A0CBEBD0E034E844E9208390819923ECF745
S11305B09C91987F983011F09031B1F78883308303
S11305C090819923ECF79C91987F903211F09835A3
S11305D029F44083908194FDFDCFE6CFDF91CF9144
S11305E0089584E98093BC00ECEBF0E0808184FD05
S11305F0FDCF08958093BB0084E88093BC00ECEBAE
S1130600F0E080818823ECF79091B900987F81E035
S1130610983209F480E0089584EC8093BC00ECEBFC
S1130620F0E080818823ECF78091BB00089584E892
S11306308093BC00ECEBF0E080818823ECF78091A0
S1130640BB000895CF93C82F80919502823089F022
S1130650833019F0813029F518C0CA3011F48DE0C7
S1130660F1DFE0E3F1E0808185FFFDCFC093360147
S113067023C0CA3011F48DE0E5DFE0EDF0E08081C5
S113068085FFFDCFC093D60017C0CA3011F48DE0AA
S1130690D9DFE8ECF0E0808185FFFDCFC093CE0088
S11306A00BC0CA3011F48DE0CDDFE0ECF0E08081C6
S11306B085FFFDCFC093C6008C2F90E0CF910895A5
S11306C0BC0180919502823069F0833019F0813049
S11306D0C9F410C0E0E3F1E080818823ECF7809155
S11306E03601B0CFE0EDF0E080818823ECF7809113
S11306F0D600A8CFE8ECF0E080818823ECF7809165
S1130700CE00A0CFE0ECF0E080818823ECF780916C
S1130710C60098CF843018F48093950208951092FF
S1130720950208952F923F924F925F926F927F921B
S11307308F929F92AF92BF92CF92EF920F931F939B
S1130740CF93DF93CDB7DEB72A970FB6F894DEBF09
S11307500FBECDBF922F20E032E030932E032093C2
S11307602D033093300320932F0341152BE45207BC
S11307706105710571F190F4403629E05207610575
S1130780710579F1403C22E152076105710529F1B7
S1130790403B54406105710561F527C0411521EEC8
S11307A052076105710549F1411522EC520721E018
S11307B06207710531F04115564961057105C9F4A7
S11307C004C041E020E130E01BC041E023E330E01D
S11307D017C040E023E330E013C041E020EA31E0F9
S11307E00FC041E020E433E00BC041E022E836E0F2
S11307F007C040E027E630E003C041E022E230E0F9
S1130800813009F446C038F0823009F481C0833065
S113081009F0FBC0BAC0442331F0E0ECF0E0808181
S11308208260808302C01092C0003093C500209380
S1130830C40080E8089F8001112490FB442440F800
S1130840512C440C551C440C551C440C551C440C94
S1130850551C402AE0FA662460F8712C660C771C5B
S1130860660C771C660C771C6428C0FA882480F810
S1130870912C0024969487940794969487940794D3
S1130880982C802C86288092C10086E08093C20038
S1130890BCC0442331F0E8ECF0E0808182608083C6
S11308A002C01092C8003093CD002093CC00E0E841
S11308B00E9F8001112490FBAA24A0F8B12CAA0C4D
S11308C0BB1CAA0CBB1CAA0CBB1CAA0CBB1CA02ADC
S11308D0FE2DF170F9871A8689859A85880F991FEC
S11308E0880F991F880F991F8A29AC2DA170B0E039
S11308F00024B695A7950794B695A7950794BA2FA3
S1130900A02DA82BA093C90086E08093CA007DC0C7
S1130910442331F0A0EDB0E08C9182608C9302C04E
S11309201092D0003093D5002093D40020E8029F89
S113093080011124E92FE170F0E0E295F295F07F57
S1130940FE27E07FFE27E02BE0FA222420F8312C5A
S1130950220C331C220C331C220C331C2E2A8C2D0B
S1130960817089831A8289819A810024969587955A
S11309700794969587950794982F802D82298093C4
S1130980D10086E08093D20040C0442331F0E0E3FC
S1130990F1E080818260808302C010923001309344
S11309A0350120933401E0E80E9F800111249170F9
S11309B09B831C828B819C8182959295907F982742
S11309C0807F9827802BFE2DF170FD831E822D8160
S11309D03E81220F331F220F331F220F331F282B78
S11309E08C2D81708F8318868F819885002496952D
S11309F087950794969587950794982F802D822B39
S1130A008093310186E0809332012A960FB6F894E0
S1130A10DEBF0FBECDBFDF91CF911F910F91EF903D
S1130A20CF90BF90AF909F908F907F906F905F908A
S1130A304F903F902F90089520919F0230E02F38DF
S1130A40310564F4C9019695982F88279795879561
S1130A50821B930B6EE870E054D10DC02E583109FF
S1130A60C9019695982F88279795879561E770E037
S1130A7048D162587F4F6F577109862F972F089579
S1130A8020919E0230E02038310564F4C901969526
S1130A90982F882797958795821B930B6FE770E0B3
S1130AA030D112C02F573109B9017695762F6627B8
S1130AB07795679530FF02C061587F4F660F672FA7
S1130AC0661F770B62587F4F6F577109862F972FD8
S1130AD0089580919D02089580919C02089520912B
S1130AE09A0230919B022F503240822F932F089507
S1130AF0209198023091990223513240822F932FF2
S1130B000895209196023091970222513240822F0B
S1130B10932F08950F931F93DB01FB0145E122817D
S1130B203381219331934150D1F7FB0191A780A7E1
S1130B3060E070E0CB010D911D91222717FD2095F7
S1130B40322F600F711F821F931F4F5F453199F73A
S1130B5025E130E040E050E0E7D0822F932F1F9151
S1130B600F910895AF92BF92CF92DF92EF92FF92CE
S1130B700F931F93CF93DF9300D000D0CDB7DEB790
S1130B80EE24E394F12CEC0EFD1E86E0F7011192A5
S1130B908A95E9F78FE396E00197F1F700C000002A
S1130BA084EAF7DC80E026DD1CDDEFE3F6E0319734
S1130BB0F1F700C0000085EAECDC87016E01F7E084
S1130BC0CF0ED11C5E0136E0A30EB11C06C0EA14A0
S1130BD0FB0419F42CDD8E8307C01EDDF70181931D
S1130BE07F01EC15FD0599F7FCDC8FE396E0019796
S1130BF0F1F700C0000097E1F80180818927895E40
S1130C0081938F01EC15FD05B9F7898180939F02CB
S1130C108A8180939E028E81982F909591709093F3
S1130C209D0291E081FD90E090939C02837090E09E
S1130C302B81AC0164E0269F400D511D112450937B
S1130C409B0240939A022C81FC0144E0249FE00D16
S1130C50F11D1124F0939902E09398022D8154E040
S1130C60259F800D911D11249093970280939602E5
S1130C7080919A0290919B0269ED72E04BDF909310
S1130C809B0280939A0280919802909199026FEA54
S1130C9072E040DF909399028093980280919602CB
S1130CA09091970263E073E035DF9093970280930D
S1130CB0960226960FB6F894DEBF0FBECDBFDF9125
S1130CC0CF911F910F91FF90EF90DF90CF90BF9045
S1130CD0AF90089558DC8FE891E00197F1F700C0D8
S1130CE0000084EA56DC80E485DC80E083DC79DC87
S1130CF083E892E09F938F9368D034DF0F900F9036
S1130D00089597FB072E16F4009406D077FD08D0BB
S1130D1026D007FC05D03EF4909581959F4F089509
S1130D20709561957F4F0895052E97FB16F40094F6
S1130D3006D057FD0CD027D007FC09D07EF490953F
S1130D408095709561957F4F8F4F9F4F0895509573
S1130D504095309521953F4F4F4F5F4F0895AA1B03
S1130D60BB1B51E107C0AA1FBB1FA617B70710F092
S1130D70A61BB70B881F991F5A95A9F780959095C4
S1130D80BC01CD010895A1E21A2EAA1BBB1BFD01D3
S1130D900DC0AA1FBB1FEE1FFF1FA217B307E40756
S1130DA0F50720F0A21BB30BE40BF50B661F771FAE
S1130DB0881F991F1A9469F760957095809590958E
S1130DC09B01AC01BD01CF010895CF93DF93CDB753
S1130DD0DEB7FE01369661917191AF0180912F03C8
S1130DE09091300332D0DF91CF9108950F931F93E8
S1130DF0CF93DF938C01E0912F03F0913003838133
S1130E0081FF1BC0C0E0D0E005C01995892B11F00B
S1130E10CFEFDFEFF80181918F0160912F03709183
S1130E203003DB011896ED91FC9119978111EDCFF8
S1130E308AE01995892B09F402C0CFEFDFEFCE01C8
S1130E40DF91CF911F910F9108952F923F924F926E
S1130E505F926F927F928F929F92AF92BF92CF9246
S1130E60DF92EF92FF920F931F93CF93DF93CDB74F
S1130E70DEB72C970FB6F894DEBF0FBECDBF7C0152
S1130E806B018A01FC0117821682838181FFB9C13B
S1130E9088248394912C8C0E9D1EF7019381F60176
S1130EA093FD859193FF81916F01882309F4A5C176
S1130EB0853239F493FD859193FF81916F018532D9
S1130EC021F4B70190E0CFD1E8CF512C312C20E0B0
S1130ED02032A8F48B3261F028F4803251F083324E
S1130EE071F40BC08D3239F0803349F4216028C08D
S1130EF02260246025C0286023C0206121C027FD12
S1130F0027C0382F30533A3078F426FF06C0FAE071
S1130F105F9E300D1124532E13C08AE0389E300D8D
S1130F201124332E20620CC08E3221F426FD65C1BB
S1130F30206406C08C3611F4206802C0883641F45F
S1130F40F60193FD859193FF81916F018111C0CFCB
S1130F50982F9554933018F09052933028F40C5FE6
S1130F601F4FFFE3F9830DC0833631F0833771F0EF
S1130F70833509F05AC022C0F801808189830E5F4D
S1130F801F4F44244394512C540114C03801F2E0FF
S1130F906F0E711CF801A080B18026FF03C0652D7F
S1130FA070E002C06FEF7FEFC5012C8751D12C0197
S1130FB083012C856FE7262E222217C03801F2E028
S1130FC06F0E711CF801A080B18026FF03C0652D4F
S1130FD070E002C06FEF7FEFC5012C872ED12C018A
S1130FE02C8550E8252E222A830123FC1AC005C033
S1130FF0B70180E290E037D13A94832D90E048160F
S11310005906B0F30EC0F50127FC859127FE8191A6
S11310105F01B70190E027D131103A94F1E04F1A03
S113102051084114510479F7E5C0843611F089362A
S113103039F5F80127FF07C06081718182819381AE
S11310400C5F1F4F08C060817181882777FD8095F0
S1131050982F0E5F1F4F4FE6B42EB22297FF09C0A0
S113106090958095709561957F4F8F4F9F4FF0E8D5
S1131070BF2A2AE030E0A40122D1A82EA81842C039
S1131080853731F43FEEB32EB2222AE030E024C09B
S113109099EFB92EB2228F36B9F020F4883509F0D1
S11310A0ACC00DC0803721F0883709F0A6C002C05B
S11310B020E1B22AB4FE0BC084E0B82A08C024FFA1
S11310C009C0E6E0BE2A06C028E030E005C020E101
S11310D030E002C020E132E0F801B7FE07C06081D1
S11310E07181828193810C5F1F4F06C06081718181
S11310F080E090E00E5F1F4FA401E1D0A82EA81855
S1131100FFE7BF22B6FE0BC02B2D2E7FA51450F493
S1131110B4FE0AC0B2FC08C02B2D2E7E05C07A2C6A
S11311202B2D03C07A2C01C0752C24FF0DC0FE01A9
S1131130EA0DF11D8081803311F4297E09C022FF5C
S113114006C07394739404C0822F867809F0739454
S113115023FD13C020FF0EC05A2C731458F4530CF3
S11311605718732C07C0B70180E290E02C877BD01E
S113117073942C857314B8F304C0731410F43718E3
S113118001C0312C24FF11C0B70180E390E02C870B
S11311906AD02C8522FF1CC021FF03C088E590E0A3
S11311A002C088E790E0B7010CC0822F867881F0F6
S11311B021FD02C080E201C08BE227FD8DE2B70170
S11311C090E051D005C0B70180E390E04CD05A9430
S11311D0A514C8F3AA94F401EA0DF11DB7018081A6
S11311E090E041D0A110F6CF05C0B70180E290E0B5
S11311F03AD03A943110F9CF50CEF7012681378195
S113120002C02FEF3FEFC9012C960FB6F894DEBF52
S11312100FBECDBFDF91CF911F910F91FF90EF9043
S1131220DF90CF90BF90AF909F908F907F906F9002
S11312305F904F903F902F900895FC01059061506E
S113124070400110D8F7809590958E0F9F1F0895D8
S1131250FC016150704001900110D8F78095909581
S11312608E0F9F1F08950F931F93CF93DF938C01CD
S1131270EB018B8181FD03C00FEF1FEF1AC082FFCA
S11312800DC02E813F818C819D812817390764F41C
S1131290E881F9810193F983E88306C0E885F9853B
S11312A0802F1995892B41F78E819F8101969F8309
S11312B08E83C801DF91CF911F910F910895FA0198
S11312C0AA27283051F1203181F1E8946F936E7F81
S11312D06E5F7F4F8F4F9F4FAF4FB1E03ED0B4E072
S11312E03CD0670F781F891F9A1FA11D680F791FB3
S11312F08A1F911DA11D6A0F711D811D911DA11DC4
S113130020D009F468943F912AE0269F11243019D3
S1131310305D3193DEF6CF010895462F4770405D6E
S11313204193B3E00FD0C9F7F6CF462F4F70405D1D
S11313304A3318F0495D31FD4052419302D0A9F778
S1131340EACFB4E0A6959795879577956795BA9572
S1131350C9F700976105710508959B01AC010A2E38
S113136006945795479537952795BA95C9F7620F0F
S1111370731F841F951FA01D0895F894FFCFCE
S113137E0000000300000000220360030000537409
S113138E6570204C656674005374657020526967ED
S113139E68740025640A0053746F7000696E746576
S11313AE727275707434005374617274696E67006E
S11313BE496E697469616C697A6174696F6E2063D0
S11313CE6F6D706C65746521004175746F206D6F5F
S11313DE6465210A004F62737461636C6520696EE3
S11313EE2052616E6765004E4F204F425354414365
S11113FE4C450061667465722073746F700054
S9030000FC
