:1000000071C000008EC000008CC000008AC00000DB
:1000100088C00000FCC0000084C0000082C0000056
:1000200080C000007EC000007CC000007AC00000DC
:1000300078C0000076C0000074C00000C9C0000095
:1000400070C000006EC000006CC000006AC00000FC
:1000500068C0000066C0000064C0000062C000000C
:1000600060C000005EC000005CC000005AC000001C
:1000700058C0000056C0000054C0000052C000002C
:1000800050C000004EC000004CC000004AC000003C
:1000900048C0000046C0000044C0000042C000004C
:1000A00040C000003EC000003CC000003AC000005C
:1000B00038C0000036C0000034C0000032C000006C
:1000C00030C000002EC000002CC000002AC000007C
:1000D00028C0000026C0000024C0000022C000008C
:1000E00020C0000011241FBECFEFD1E2DEBFCDBF84
:1000F00000E00CBF12E0A0E0B2E0E0EFF0E100E0D1
:100100000BBF02C007900D92A037B107D9F723E0CB
:10011000A0E7B2E001C01D92A531B207E1F7C7D058
:10012000E5C76ECFCF92EF920F9380E0ACD1C12C98
:10013000EE24E39400E021E040E855E260E070E066
:1001400080E0A9D10F91EF90CF9008957CC40895DD
:10015000EAE6F0E0808181608083EC9A089A6C98EE
:100160001092710210927002089581E08093B100A4
:10017000809370001092B20010928302109282025B
:1001800008951092B1000895A6D35FD3809384029E
:1001900059D380938E0209D3909389028093880269
:1001A00028D3909387028093860252D390938B0238
:1001B00080938A0256D39093900280938F025AD3F1
:1001C00090938D0280938C02089585E190E00895CC
:1001D0001F920F920FB60F9211242F938F939F931C
:1001E0008091820290918302019690938302809382
:1001F0008202853B954018F081E0809385029F91B3
:100200008F912F910F900FBE0F901F9018951F92F6
:100210000F920FB60F9211240BB60F922F933F93AC
:100220004F935F936F937F938F939F93AF93BF93FE
:10023000EF93FF938EE092E09F938F937FD4809112
:100240007002909171020F900F900197E9F48091E4
:10025000740290917502892B41F487DF81E090E070
:1002600090937502809374020FC08BDF1092750219
:1002700010927402109271021092700281E090E06C
:100280009093730280937202FF91EF91BF91AF91AF
:100290009F918F917F916F915F914F913F912F919E
:1002A0000F900BBE0F900FBE0F901F901895789473
:1002B00039DF89E192E053D449DF4ADF82E292E0FC
:1002C0004ED4C1E080917602811108C05DDF80913B
:1002D00084028823B9F3C0937602F4CF8BE392E0D3
:1002E0003ED473DF449724F487E492E038D4EACF15
:1002F00089E592E034D4E6CF1092B90088E9809382
:10030000B8000895CF93DF93ECEBF0E024EAA9EB7B
:10031000B0E0CBEBD0E034E844E92083908199232E
:10032000ECF79C91987F983011F09031B1F7888369
:10033000308390819923ECF79C91987F903211F053
:10034000983529F44083908194FDFDCFE6CFDF916D
:10035000CF91089584E98093BC00ECEBF0E08081BC
:1003600084FDFDCF08958093BB0084E88093BC009A
:10037000ECEBF0E080818823ECF79091B900987F56
:1003800081E0983209F480E0089584EC8093BC0009
:10039000ECEBF0E080818823ECF78091BB000895BE
:1003A00084E88093BC00ECEBF0E080818823ECF7DC
:1003B0008091BB000895CF93C82F8091770282303F
:1003C00089F0833019F0813029F518C0CA3011F452
:1003D0008DE0F1DFE0E3F1E0808185FFFDCFC093A8
:1003E000360123C0CA3011F48DE0E5DFE0EDF0E026
:1003F000808185FFFDCFC093D60017C0CA3011F4AD
:100400008DE0D9DFE8ECF0E0808185FFFDCFC0937F
:10041000CE000BC0CA3011F48DE0CDDFE0ECF0E08F
:10042000808185FFFDCFC093C6008C2F90E0CF91D7
:100430000895BC0180917702823069F0833019F011
:100440008130C9F410C0E0E3F1E080818823ECF74B
:1004500080913601B0CFE0EDF0E080818823ECF7A9
:100460008091D600A8CFE8ECF0E080818823ECF7FB
:100470008091CE00A0CFE0ECF0E080818823ECF703
:100480008091C60098CF843018F480937702089545
:100490001092770208952F923F924F925F926F923F
:1004A0007F928F929F92AF92BF92CF92EF920F93D3
:1004B0001F93CF93DF93CDB7DEB72A970FB6F8948B
:1004C000DEBF0FBECDBF922F20E032E0309310038D
:1004D00020930F03309312032093110341152BE453
:1004E00052076105710571F190F4403629E0520719
:1004F0006105710579F1403C22E152076105710502
:1005000029F1403B54406105710561F527C0411553
:1005100021EE52076105710549F1411522EC5207A0
:1005200021E06207710531F04115564961057105F9
:10053000C9F404C041E020E130E01BC041E023E306
:1005400030E017C040E023E330E013C041E020EA90
:1005500031E00FC041E020E433E00BC041E022E88D
:1005600036E007C040E027E630E003C041E022E289
:1005700030E0813009F446C038F0823009F481C09F
:10058000833009F0FBC0BAC0442331F0E0ECF0E066
:1005900080818260808302C01092C0003093C500C9
:1005A0002093C40080E8089F8001112490FB44241C
:1005B00040F8512C440C551C440C551C440C551C43
:1005C000440C551C402AE0FA662460F8712C660C35
:1005D000771C660C771C660C771C6428C0FA88248C
:1005E00080F8912C0024969487940794969487948D
:1005F0000794982C802C86288092C10086E08093F6
:10060000C200BCC0442331F0E8ECF0E0808182609D
:10061000808302C01092C8003093CD002093CC009C
:10062000E0E80E9F8001112490FBAA24A0F8B12CD1
:10063000AA0CBB1CAA0CBB1CAA0CBB1CAA0CBB1C86
:10064000A02AFE2DF170F9871A8689859A85880F70
:10065000991F880F991F880F991F8A29AC2DA170A7
:10066000B0E00024B695A7950794B695A795079492
:10067000BA2FA02DA82BA093C90086E08093CA00B2
:100680007DC0442331F0A0EDB0E08C9182608C936A
:1006900002C01092D0003093D5002093D40020E8FF
:1006A000029F80011124E92FE170F0E0E295F295BC
:1006B000F07FFE27E07FFE27E02BE0FA222420F8DF
:1006C000312C220C331C220C331C220C331C2E2AFE
:1006D0008C2D817089831A8289819A810024969554
:1006E00087950794969587950794982F802D822952
:1006F0008093D10086E08093D20040C0442331F043
:10070000E0E3F1E080818260808302C010923001DA
:100710003093350120933401E0E80E9F80011124CD
:1007200091709B831C828B819C8182959295907F96
:100730009827807F9827802BFE2DF170FD831E82E5
:100740002D813E81220F331F220F331F220F331FB3
:10075000282B8C2D81708F8318868F81988500249B
:10076000969587950794969587950794982F802D51
:10077000822B8093310186E0809332012A960FB656
:10078000F894DEBF0FBECDBFDF91CF911F910F91C7
:10079000EF90CF90BF90AF909F908F907F906F9091
:1007A0005F904F903F902F9008952091810230E00C
:1007B0002F38310564F4C9019695982F88279795AD
:1007C0008795821B930B6EE870E054D10DC02E58B4
:1007D0003109C9019695982F88279795879561E7E4
:1007E00070E048D162587F4F6F577109862F972F5D
:1007F00008952091800230E02038310564F4C90169
:100800009695982F882797958795821B930B6FE76E
:1008100070E030D112C02F573109B9017695762F8B
:1008200066277795679530FF02C061587F4F660F46
:10083000672F661F770B62587F4F6F577109862F9E
:10084000972F089580917F02089580917E020895E8
:1008500020917C0230917D022F503240822F932FC5
:10086000089520917A0230917B0223513240822FE9
:10087000932F0895209178023091790222513240CD
:10088000822F932F08950F931F93DB01FB0145E106
:1008900022813381219331934150D1F7FB0191A7FC
:1008A00080A760E070E0CB010D911D91222717FD1C
:1008B0002095322F600F711F821F931F4F5F4531AC
:1008C00099F725E130E040E050E0E7D0822F932F08
:1008D0001F910F910895AF92BF92CF92DF92EF9246
:1008E000FF920F931F93CF93DF9300D000D0CDB72B
:1008F000DEB7EE24E394F12CEC0EFD1E86E0F7014A
:1009000011928A95E9F78FE396E00197F1F700C01D
:10091000000084EAF7DC80E026DD1CDDEFE3F6E092
:100920003197F1F700C0000085EAECDC87016E0129
:10093000F7E0CF0ED11C5E0136E0A30EB11C06C05D
:10094000EA14FB0419F42CDD8E8307C01EDDF701C9
:1009500081937F01EC15FD0599F7FCDC8FE396E0B0
:100960000197F1F700C0000097E1F8018081892725
:10097000895E81938F01EC15FD05B9F7898180931C
:1009800081028A81809380028E81982F9095917048
:1009900090937F0291E081FD90E090937E028370BE
:1009A00090E02B81AC0164E0269F400D511D112485
:1009B00050937D0240937C022C81FC0144E0249FF3
:1009C000E00DF11D1124F0937B02E0937A022D815A
:1009D00054E0259F800D911D1124909379028093FE
:1009E000780280917C0290917D026BEB72E04BDF8C
:1009F00090937D0280937C0280917A0290917B0299
:100A000061E972E040DF90937B0280937A028091EB
:100A100078029091790265EE72E035DF9093790269
:100A20008093780226960FB6F894DEBF0FBECDBF36
:100A3000DF91CF911F910F91FF90EF90DF90CF90BA
:100A4000BF90AF90089558DC8FE891E00197F1F7DF
:100A500000C0000084EA56DC80E485DC80E083DCB2
:100A600079DC85E692E09F938F9368D034DF0F9016
:100A70000F90089597FB072E16F4009406D077FD8B
:100A800008D026D007FC05D03EF4909581959F4F65
:100A90000895709561957F4F0895052E97FB16F484
:100AA000009406D057FD0CD027D007FC09D07EF467
:100AB00090958095709561957F4F8F4F9F4F0895CA
:100AC00050954095309521953F4F4F4F5F4F08957A
:100AD000AA1BBB1B51E107C0AA1FBB1FA617B70764
:100AE00010F0A61BB70B881F991F5A95A9F7809580
:100AF0009095BC01CD010895A1E21A2EAA1BBB1B43
:100B0000FD010DC0AA1FBB1FEE1FFF1FA217B307D9
:100B1000E407F50720F0A21BB30BE40BF50B661FEF
:100B2000771F881F991F1A9469F7609570958095B3
:100B300090959B01AC01BD01CF010895CF93DF9348
:100B4000CDB7DEB7FE01369661917191AF0180910C
:100B500011039091120332D0DF91CF9108950F933A
:100B60001F93CF93DF938C01E0911103F091120357
:100B7000838181FF1BC0C0E0D0E005C01995892B9F
:100B800011F0CFEFDFEFF80181918F016091110338
:100B900070911203DB011896ED91FC911997811168
:100BA000EDCF8AE01995892B09F402C0CFEFDFEF72
:100BB000CE01DF91CF911F910F9108952F923F9217
:100BC0004F925F926F927F928F929F92AF92BF925D
:100BD000CF92DF92EF92FF920F931F93CF93DF9309
:100BE000CDB7DEB72C970FB6F894DEBF0FBECDBFE2
:100BF0007C016B018A01FC0117821682838181FFCF
:100C0000B9C188248394912C8C0E9D1EF701938189
:100C1000F60193FD859193FF81916F01882309F47B
:100C2000A5C1853239F493FD859193FF81916F01C0
:100C3000853221F4B70190E0CFD1E8CF512C312C8F
:100C400020E02032A8F48B3261F028F4803251F099
:100C5000833271F40BC08D3239F0803349F4216056
:100C600028C02260246025C0286023C0206121C0E4
:100C700027FD27C0382F30533A3078F426FF06C0BE
:100C8000FAE05F9E300D1124532E13C08AE0389E87
:100C9000300D1124332E20620CC08E3221F426FD3B
:100CA00065C1206406C08C3611F4206802C0883605
:100CB00041F4F60193FD859193FF81916F018111BC
:100CC000C0CF982F9554933018F09052933028F459
:100CD0000C5F1F4FFFE3F9830DC0833631F083377C
:100CE00071F0833509F05AC022C0F80180818983F0
:100CF0000E5F1F4F44244394512C540114C03801FB
:100D0000F2E06F0E711CF801A080B18026FF03C0D5
:100D1000652D70E002C06FEF7FEFC5012C8751D1C8
:100D20002C0183012C856FE7262E222217C0380163
:100D3000F2E06F0E711CF801A080B18026FF03C0A5
:100D4000652D70E002C06FEF7FEFC5012C872ED1BB
:100D50002C012C8550E8252E222A830123FC1AC061
:100D600005C0B70180E290E037D13A94832D90E03E
:100D700048165906B0F30EC0F50127FC859127FEF1
:100D800081915F01B70190E027D131103A94F1E0F1
:100D90004F1A51084114510479F7E5C0843611F017
:100DA000893639F5F80127FF07C06081718182819A
:100DB00093810C5F1F4F08C060817181882777FD88
:100DC0008095982F0E5F1F4F4FE6B42EB22297FFEB
:100DD00009C090958095709561957F4F8F4F9F4F7B
:100DE000F0E8BF2A2AE030E0A40122D1A82EA818FA
:100DF00042C0853731F43FEEB32EB2222AE030E014
:100E000024C099EFB92EB2228F36B9F020F488357C
:100E100009F0ACC00DC0803721F0883709F0A6C0BA
:100E200002C020E1B22AB4FE0BC084E0B82A08C098
:100E300024FF09C0E6E0BE2A06C028E030E005C075
:100E400020E130E002C020E132E0F801B7FE07C047
:100E500060817181828193810C5F1F4F06C0608128
:100E6000718180E090E00E5F1F4FA401E1D0A82EB9
:100E7000A818FFE7BF22B6FE0BC02B2D2E7FA514AE
:100E800050F4B4FE0AC0B2FC08C02B2D2E7E05C063
:100E90007A2C2B2D03C07A2C01C0752C24FF0DC099
:100EA000FE01EA0DF11D8081803311F4297E09C015
:100EB00022FF06C07394739404C0822F867809F0D1
:100EC000739423FD13C020FF0EC05A2C731458F4E2
:100ED000530C5718732C07C0B70180E290E02C87A1
:100EE0007BD073942C857314B8F304C0731410F47E
:100EF000371801C0312C24FF11C0B70180E390E006
:100F00002C876AD02C8522FF1CC021FF03C088E5F6
:100F100090E002C088E790E0B7010CC0822F86788D
:100F200081F021FD02C080E201C08BE227FD8DE24D
:100F3000B70190E051D005C0B70180E390E04CD0FC
:100F40005A94A514C8F3AA94F401EA0DF11DB7014F
:100F5000808190E041D0A110F6CF05C0B70180E2BA
:100F600090E03AD03A943110F9CF50CEF701268173
:100F7000378102C02FEF3FEFC9012C960FB6F894CE
:100F8000DEBF0FBECDBFDF91CF911F910F91FF90BC
:100F9000EF90DF90CF90BF90AF909F908F907F9019
:100FA0006F905F904F903F902F900895FC010590B7
:100FB000615070400110D8F7809590958E0F9F1F5B
:100FC0000895FC016150704001900110D8F78095A0
:100FD00090958E0F9F1F08950F931F93CF93DF93CC
:100FE0008C01EB018B8181FD03C00FEF1FEF1AC055
:100FF00082FF0DC02E813F818C819D81281739078A
:1010000064F4E881F9810193F983E88306C0E885F7
:10101000F985802F1995892B41F78E819F81019643
:101020009F838E83C801DF91CF911F910F91089507
:10103000FA01AA27283051F1203181F1E8946F9309
:101040006E7F6E5F7F4F8F4F9F4FAF4FB1E03ED0AF
:10105000B4E03CD0670F781F891F9A1FA11D680F4D
:10106000791F8A1F911DA11D6A0F711D811D911D80
:10107000A11D20D009F468943F912AE0269F1124F5
:101080003019305D3193DEF6CF010895462F477059
:10109000405D4193B3E00FD0C9F7F6CF462F4F70B4
:1010A000405D4A3318F0495D31FD4052419302D012
:1010B000A9F7EACFB4E0A6959795879577956795B8
:1010C000BA95C9F700976105710508959B01AC01B8
:1010D0000A2E06945795479537952795BA95C9F7DF
:1010E000620F731F841F951FA01D0895F894FFCFF2
:1010F0000000000300000000DB0119020000696E1F
:101100007465727275707434005374617274696EB0
:101110006700496E697469616C697A6174696F6EA0
:1011200020636F6D706C65746521004175746F206C
:101130006D6F6465210A004F62737461636C652092
:10114000696E2052616E6765004E4F204F425354C6
:1011500041434C450061667465722073746F700082
:00000001FF
