:1000000071C000008FC000008DC000008BC00000D8
:1000100089C00000F5C2000085C0000083C0000058
:1000200081C000007FC000007DC000007BC00000D8
:1000300079C0000077C0000075C0000074C00000E7
:1000400071C000006FC000006DC000006BC00000F8
:1000500069C0000067C0000065C0000063C0000008
:1000600061C000005FC000005DC000005BC0000018
:1000700059C0000057C0000055C0000053C0000028
:1000800051C000004FC000004DC000004BC0000038
:1000900049C0000047C0000045C0000043C0000048
:1000A00041C000003FC000003DC000003BC0000058
:1000B00039C0000037C0000035C0000033C0000068
:1000C00031C000002FC000002DC000002BC0000078
:1000D00029C0000027C0000025C0000023C0000088
:1000E00021C0000011241FBECFEFD1E2DEBFCDBF83
:1000F00000E00CBF12E0A0E0B2E0E4E9F7E100E0CC
:100100000BBF02C007900D92AE39B107D9F723E0BB
:10011000AEE9B2E001C01D92A534B207E1F7D5D136
:100120000C94C80B6DCF1F920F920FB60F92112433
:100130002F938F939F938091B2029091B302019677
:100140009093B3028093B202853B954018F081E012
:100150008093B5029F918F912F910F900FBE0F90BA
:100160001F901895CF92EF920F9380E059D3C12C36
:10017000EE24E39400E021E040E855E260E070E026
:1001800080E056D30F91EF90CF90089529C608953F
:10019000EAE6F0E0808181608083EC9A089A6C98AE
:1001A0001092A1021092A002089580EC80937C002E
:1001B000EAE7F0E087E08083808180688083808147
:1001C00080648083808186FDFDCF8091780090914E
:1001D0007900089584B5816884BD85B5816085BD49
:1001E000279A81B1846181B917BC089581B18A6A67
:1001F00081B9089582B1886282B982B18D7782B95E
:100200008FE097E20197F1F700C00000089582B1F6
:10021000886882B982B18D7D82B98FE097E20197BB
:10022000F1F700C00000089582B1826882B982B1FE
:10023000877D82B98FE097E20197F1F700C0000057
:10024000089582B1826282B982B1877782B98FE0E4
:1002500097E20197F1F700C0000008950F931F93F4
:10026000CF93DF938C018EE092E0CBD7101611066E
:1002700054F4C0E0D0E0E5DFD7DFC9DFBBDF219673
:10028000C017D107C1F782B1857582B9DF91CF91CF
:100290001F910F9108950F931F93CF93DF938C01BC
:1002A00088E192E0AED71016110654F4C0E0D0E019
:1002B000A1DFADDFB9DFC5DF2196C017D107C1F7D8
:1002C00082B1857582B9DF91CF911F910F91089509
:1002D000CFD488D48093B40282D48093BE0232D427
:1002E0009093B9028093B80251D49093B70280934F
:1002F000B6027BD49093BB028093BA027FD49093D2
:10030000C0028093BF0283D49093BD028093BC024D
:1003100008952091B6023091B70225303105CCF016
:100320004FEF429FC001439F900D112467E670E09C
:10033000F3D667BD129A149887B51F928F9383E204
:1003400092E09F938F934CD70F900F900F900F9048
:1003500008952C3F8FEF3807D4F441E0429FC0014D
:10036000439F900D921B11246EEC70E0D5D667BDB3
:10037000149A129887B51F928F9383E292E09F930D
:100380008F932ED70F900F900F900F90089517BC5A
:100390001298149887E292E034C78091B802909145
:1003A000B9028B3091051CF081E090E074CF863F5C
:1003B0009F4F1CF481E090E051CF0895ECE7F0E00E
:1003C00090818F71907E982B9083EAE7F0E0808196
:1003D00080648083808186FDFDCF209178003091FC
:1003E0007900822F932F08958091A0029091A1020D
:1003F000892BE1F42FEF80E792E02150804090407C
:10040000E1F700C00000109825E02A95F1F7000000
:10041000109A85E38A95F1F70000109881E090E04A
:100420009093A1028093A0021092B5022091B50290
:100430008091A2029091A302892B19F42223C1F387
:1004400002C0222319F08CE292E0DBC68091B30255
:100450008F938091B2028F9383E392E09F938F9367
:10046000BFD66091B2027091B30280E090E063D594
:100470002CE53FE842E85CE3ECD523EE35EB4BEAB4
:1004800053E4E7D520E030E040E251E4C0D420E07E
:1004900030E040E05FE3DDD522D560939E027093AB
:1004A0009F027F936F9387E392E09F938F9398D6F9
:1004B0001092A3021092A2028DB79EB708960FB6B3
:1004C000F8949EBF0FBE8DBF089578944BDE82E5F1
:1004D00092E097D65BDE5CDE68DE7CDE87DE8BE555
:1004E00092E08FD6C3E2D2E010E80FEF80E066DF43
:1004F0009F938F93DF93CF9373D682E05FDF9F93B9
:100500008F93DF93CF936CD681E058DF9F938F93C7
:10051000DF93CF9365D62FEF89E698E12150804095
:100520009040E1F700C000008DB79EB70C960FB663
:10053000F8949EBF0FBE8DBF8091A602811114C09A
:10054000C7DE8091B402882361F081E08093A60227
:100550009FEF29E688E1915020408040E1F700C0FC
:100560000000D7DE1ADFC2CF84E792E04AD680913E
:10057000B402882359F01092A6029FEF29E688E181
:10058000915020408040E1F700C000002DDF8091B5
:100590009E0290919F02449728F480E892E031D621
:1005A00017BCA4CF80E00ADF8436910528F481E0EF
:1005B00090E054DE17BD9ACF81E000DF84369105CC
:1005C00028F481E090E067DE17BD90CF82E0F6DE90
:1005D0008436910510F407BD89CF17BD87CF81E020
:1005E0008093B1001092B000809370001092B2001E
:1005F0001092B3021092B20208951092B1000895C1
:100600001F920F920FB60F9211240BB60F922F93D9
:100610003F934F935F936F937F938F939F93AF938A
:10062000BF93EF93FF938091A0029091A102019755
:10063000E9F48091A4029091A502892B41F4CFDFC7
:1006400081E090E09093A5028093A4020FC0D5DFD3
:100650001092A5021092A4021092A1021092A00280
:1006600081E090E09093A3028093A202FF91EF912A
:10067000BF91AF919F918F917F916F915F914F91BA
:100680003F912F910F900BBE0F900FBE0F901F90B8
:1006900018951092B90088E98093B8000895CF9317
:1006A000DF93ECEBF0E024EAA9EBB0E0CBEBD0E099
:1006B00034E844E9208390819923ECF79C91987F5A
:1006C000983011F09031B1F788833083908199236D
:1006D000ECF79C91987F903211F0983529F4408383
:1006E000908194FDFDCFE6CFDF91CF91089584E90D
:1006F0008093BC00ECEBF0E0808184FDFDCF089599
:100700008093BB0084E88093BC00ECEBF0E0808138
:100710008823ECF79091B900987F81E0983209F432
:1007200080E0089584EC8093BC00ECEBF0E08081E5
:100730008823ECF78091BB00089584E88093BC0087
:10074000ECEBF0E080818823ECF78091BB0008950A
:10075000CF93C82F8091A702823089F0833019F09F
:10076000813029F518C0CA3011F48DE0F1DFE0E3E3
:10077000F1E0808185FFFDCFC093360123C0CA30F0
:1007800011F48DE0E5DFE0EDF0E0808185FFFDCF45
:10079000C093D60017C0CA3011F48DE0D9DFE8EC61
:1007A000F0E0808185FFFDCFC093CE000BC0CA3042
:1007B00011F48DE0CDDFE0ECF0E0808185FFFDCF2E
:1007C000C093C6008C2F90E0CF910895BC0180911A
:1007D000A702823069F0833019F08130C9F410C06B
:1007E000E0E3F1E080818823ECF780913601B0CF1F
:1007F000E0EDF0E080818823ECF78091D600A8CF6F
:10080000E8ECF0E080818823ECF78091CE00A0CF67
:10081000E0ECF0E080818823ECF78091C60098CF6F
:10082000843018F48093A70208951092A7020895C7
:100830002F923F924F925F926F927F928F929F92F0
:10084000AF92BF92CF92EF920F931F93CF93DF930C
:10085000CDB7DEB72A970FB6F894DEBF0FBECDBF77
:10086000922F20E032E03093400320933F033093F7
:1008700042032093410341152BE4520761057105A2
:1008800071F190F4403629E052076105710579F164
:10089000403C22E152076105710529F1403B54407B
:1008A0006105710561F527C0411521EE520761050B
:1008B000710549F1411522EC520721E062077105EB
:1008C00031F04115564961057105C9F404C041E094
:1008D00020E130E01BC041E023E330E017C040E0FE
:1008E00023E330E013C041E020EA31E00FC041E0F3
:1008F00020E433E00BC041E022E836E007C040E0EE
:1009000027E630E003C041E022E230E0813009F424
:1009100046C038F0823009F481C0833009F0FBC052
:10092000BAC0442331F0E0ECF0E080818260808343
:1009300002C01092C0003093C5002093C40080E82C
:10094000089F8001112490FB442440F8512C440C52
:10095000551C440C551C440C551C440C551C402A79
:10096000E0FA662460F8712C660C771C660C771C24
:10097000660C771C6428C0FA882480F8912C002427
:10098000969487940794969487940794982C802C37
:1009900086288092C10086E08093C200BCC04423B8
:1009A00031F0E8ECF0E080818260808302C0109238
:1009B000C8003093CD002093CC00E0E80E9F80016A
:1009C000112490FBAA24A0F8B12CAA0CBB1CAA0CE1
:1009D000BB1CAA0CBB1CAA0CBB1CA02AFE2DF170D0
:1009E000F9871A8689859A85880F991F880F991F1C
:1009F000880F991F8A29AC2DA170B0E00024B6950C
:100A0000A7950794B695A7950794BA2FA02DA82B64
:100A1000A093C90086E08093CA007DC0442331F0D2
:100A2000A0EDB0E08C9182608C9302C01092D00057
:100A30003093D5002093D40020E8029F8001112438
:100A4000E92FE170F0E0E295F295F07FFE27E07F7C
:100A5000FE27E02BE0FA222420F8312C220C331C54
:100A6000220C331C220C331C2E2A8C2D817089837E
:100A70001A8289819A810024969587950794969584
:100A800087950794982F802D82298093D10086E046
:100A90008093D20040C0442331F0E0E3F1E0808154
:100AA0008260808302C01092300130933501209320
:100AB0003401E0E80E9F8001112491709B831C8219
:100AC0008B819C8182959295907F9827807F982733
:100AD000802BFE2DF170FD831E822D813E81220F21
:100AE000331F220F331F220F331F282B8C2D8170B1
:100AF0008F8318868F819885002496958795079413
:100B0000969587950794982F802D822B809331019D
:100B100086E0809332012A960FB6F894DEBF0FBEAE
:100B2000CDBFDF91CF911F910F91EF90CF90BF90EC
:100B3000AF909F908F907F906F905F904F903F907D
:100B40002F9008952091B10230E02F38310564F4E0
:100B5000C9019695982F882797958795821B930BA7
:100B60006EE870E0D9D20DC02E583109C9019695B2
:100B7000982F88279795879561E770E0CDD26258C6
:100B80007F4F6F577109862F972F08952091B002DC
:100B900030E02038310564F4C9019695982F8827F4
:100BA00097958795821B930B6FE770E0B5D212C0C3
:100BB0002F573109B9017695762F66277795679576
:100BC00030FF02C061587F4F660F672F661F770B9B
:100BD00062587F4F6F577109862F972F0895809124
:100BE000AF0208958091AE0208952091AC02309139
:100BF000AD022F503240822F932F08952091AA02E8
:100C00003091AB0223513240822F932F08952091CF
:100C1000A8023091A90222513240822F932F0895C9
:100C20000F931F93DB01FB0145E122813381219367
:100C300031934150D1F7FB0191A780A760E070E0AC
:100C4000CB010D911D91222717FD2095322F600FAA
:100C5000711F821F931F4F5F453199F725E130E0E7
:100C600040E050E06CD2822F932F1F910F91089596
:100C7000AF92BF92CF92DF92EF92FF920F931F93AA
:100C8000CF93DF9300D000D0CDB7DEB7EE24E3944E
:100C9000F12CEC0EFD1E86E0F70111928A95E9F722
:100CA0008FE396E00197F1F700C0000084EAF7DCDB
:100CB00080E026DD1CDDEFE3F6E03197F1F700C0C0
:100CC000000085EAECDC87016E01F7E0CF0ED11C55
:100CD0005E0136E0A30EB11C06C0EA14FB0419F451
:100CE0002CDD8E8307C01EDDF70181937F01EC159B
:100CF000FD0599F7FCDC8FE396E00197F1F700C062
:100D0000000097E1F80180818927895E81938F0136
:100D1000EC15FD05B9F789818093B1028A81809332
:100D2000B0028E81982F909591709093AF0291E0D0
:100D300081FD90E09093AE02837090E02B81AC0136
:100D400064E0269F400D511D11245093AD02409345
:100D5000AC022C81FC0144E0249FE00DF11D112424
:100D6000F093AB02E093AA022D8154E0259F800D01
:100D7000911D11249093A9028093A8028091AC0246
:100D80009091AD026BEE72E04BDF9093AD028093D9
:100D9000AC028091AA029091AB0261EC72E040DF5C
:100DA0009093AB028093AA028091A8029091A9022D
:100DB00065E173E035DF9093A9028093A80226963F
:100DC0000FB6F894DEBF0FBECDBFDF91CF911F915C
:100DD0000F91FF90EF90DF90CF90BF90AF9008956C
:100DE00058DC8FE891E00197F1F700C0000084EA39
:100DF00056DC80E485DC80E083DC79DC82E992E00B
:100E00009F938F93EDD134DF0F900F9008950CD006
:100E1000E6C0DED040F0D5D030F021F45F3F19F0CD
:100E2000C7C0511110C1CAC0EBD098F39923C9F3C0
:100E30005523B1F3951B550BBB27AA2762177307E0
:100E4000840738F09F5F5F4F220F331F441FAA1F94
:100E5000A9F333D00E2E3AF0E0E830D09150504054
:100E6000E695001CCAF729D0FE2F27D0660F771F02
:100E7000881FBB1F261737074807AB07B0E809F0E4
:100E8000BB0B802DBF01FF2793585F4F2AF09E3F79
:100E9000510568F08DC0D7C05F3FECF3983EDCF39E
:100EA000869577956795B795F7959F5FC9F7880FF2
:100EB000911D9695879597F90895E1E0660F771F44
:100EC000881FBB1F621773078407BA0720F0621BD5
:100ED000730B840BBA0BEE1F88F7E095089598D03A
:100EE00088F09F5790F0B92F9927B751A0F0D1F013
:100EF000660F771F881F991F1AF0BA95C9F712C09D
:100F0000B13081F09FD0B1E008959CC0672F782F59
:100F10008827B85F39F0B93FCCF386957795679508
:100F2000B395D9F73EF490958095709561957F4F74
:100F30008F4F9F4F0895E89409C097FB3EF490951A
:100F40008095709561957F4F8F4F9F4F9923A9F0A2
:100F5000F92F96E9BB279395F69587957795679531
:100F6000B795F111F8CFFAF4BB0F11F460FF1BC075
:100F70006F5F7F4F8F4F9F4F16C0882311F096E908
:100F800011C0772321F09EE8872F762F05C06623B6
:100F900071F096E8862F70E060E02AF09A95660F6F
:100FA000771F881FDAF7880F9695879597F9089528
:100FB00097F99F6780E870E060E008959FEF80EC0C
:100FC000089500240A9416161706180609060895AF
:100FD00000240A9412161306140605060895092E15
:100FE0000394000C11F4882352F0BB0F40F4BF2B84
:100FF00011F460FF04C06F5F7F4F8F4F9F4F0895C4
:1010000057FD9058440F551F59F05F3F71F04795B9
:10101000880F97FB991F61F09F3F79F0879508959E
:10102000121613061406551FF2CF4695F1DF08C0BD
:10103000161617061806991FF1CF869571056105DA
:1010400008940895E894BB2766277727CB0197F982
:1010500008950BD0C4CFB5DF28F0BADF18F0952380
:1010600009F0A6CFABCF1124EECFCADFA0F3959F36
:10107000D1F3950F50E0551F629FF001729FBB277F
:10108000F00DB11D639FAA27F00DB11DAA1F649F2B
:101090006627B00DA11D661F829F2227B00DA11DDE
:1010A000621F739FB00DA11D621F839FA00D611D64
:1010B000221F749F3327A00D611D231F849F600D85
:1010C000211D822F762F6A2F11249F5750408AF0BE
:1010D000E1F088234AF0EE0FFF1FBB1F661F771F4A
:1010E000881F91505040A9F79E3F510570F060CF86
:1010F000AACF5F3FECF3983EDCF386957795679532
:10110000B795F795E7959F5FC1F7FE2B880F911D67
:101110009695879597F9089597FB072E16F40094F6
:1011200006D077FD08D026D007FC05D03EF4909578
:1011300081959F4F0895709561957F4F0895052E75
:1011400097FB16F4009406D057FD0CD027D007FC6F
:1011500009D07EF490958095709561957F4F8F4F63
:101160009F4F089550954095309521953F4F4F4F93
:101170005F4F0895AA1BBB1B51E107C0AA1FBB1FED
:10118000A617B70710F0A61BB70B881F991F5A9513
:10119000A9F780959095BC01CD010895A1E21A2E82
:1011A000AA1BBB1BFD010DC0AA1FBB1FEE1FFF1F0B
:1011B000A217B307E407F50720F0A21BB30BE40B5B
:1011C000F50B661F771F881F991F1A9469F76095A2
:1011D0007095809590959B01AC01BD01CF0108955C
:1011E000CF93DF93CDB7DEB7FE0136966191719153
:1011F000AF01809141039091420332D0DF91CF91B2
:1012000008950F931F93CF93DF938C01E0914103D7
:10121000F0914203838181FF1BC0C0E0D0E005C094
:101220001995892B11F0CFEFDFEFF80181918F0134
:101230006091410370914203DB011896ED91FC919E
:1012400019978111EDCF8AE01995892B09F402C015
:10125000CFEFDFEFCE01DF91CF911F910F91089576
:101260002F923F924F925F926F927F928F929F92B6
:10127000AF92BF92CF92DF92EF92FF920F931F93A4
:10128000CF93DF93CDB7DEB72C970FB6F894DEBFC0
:101290000FBECDBF7C016B018A01FC011782168253
:1012A000838181FFB9C188248394912C8C0E9D1E6B
:1012B000F7019381F60193FD859193FF81916F0171
:1012C000882309F4A5C1853239F493FD859193FFF4
:1012D00081916F01853221F4B70190E0CFD1E8CF41
:1012E000512C312C20E02032A8F48B3261F028F40C
:1012F000803251F0833271F40BC08D3239F080337B
:1013000049F4216028C02260246025C0286023C0E1
:10131000206121C027FD27C0382F30533A3078F4A0
:1013200026FF06C0FAE05F9E300D1124532E13C035
:101330008AE0389E300D1124332E20620CC08E328C
:1013400021F426FD65C1206406C08C3611F42068A6
:1013500002C0883641F4F60193FD859193FF819197
:101360006F018111C0CF982F9554933018F090528F
:10137000933028F40C5F1F4FFFE3F9830DC08336D1
:1013800031F0833771F0833509F05AC022C0F8017B
:10139000808189830E5F1F4F44244394512C540154
:1013A00014C03801F2E06F0E711CF801A080B1800A
:1013B00026FF03C0652D70E002C06FEF7FEFC5010F
:1013C0002C8751D12C0183012C856FE7262E2222F8
:1013D00017C03801F2E06F0E711CF801A080B180D7
:1013E00026FF03C0652D70E002C06FEF7FEFC501DF
:1013F0002C872ED12C012C8550E8252E222A830102
:1014000023FC1AC005C0B70180E290E037D13A94BE
:10141000832D90E048165906B0F30EC0F50127FC65
:10142000859127FE81915F01B70190E027D13110AE
:101430003A94F1E04F1A51084114510479F7E5C08C
:10144000843611F0893639F5F80127FF07C060812D
:101450007181828193810C5F1F4F08C0608171810F
:10146000882777FD8095982F0E5F1F4F4FE6B42E8B
:10147000B22297FF09C090958095709561957F4F36
:101480008F4F9F4FF0E8BF2A2AE030E0A40122D11D
:10149000A82EA81842C0853731F43FEEB32EB222F1
:1014A0002AE030E024C099EFB92EB2228F36B9F08D
:1014B00020F4883509F0ACC00DC0803721F08837A2
:1014C00009F0A6C002C020E1B22AB4FE0BC084E03D
:1014D000B82A08C024FF09C0E6E0BE2A06C028E0FA
:1014E00030E005C020E130E002C020E132E0F80148
:1014F000B7FE07C060817181828193810C5F1F4FAD
:1015000006C06081718180E090E00E5F1F4FA401F2
:10151000E1D0A82EA818FFE7BF22B6FE0BC02B2DE6
:101520002E7FA51450F4B4FE0AC0B2FC08C02B2DC7
:101530002E7E05C07A2C2B2D03C07A2C01C0752C71
:1015400024FF0DC0FE01EA0DF11D8081803311F4EE
:10155000297E09C022FF06C07394739404C0822FB1
:10156000867809F0739423FD13C020FF0EC05A2C17
:10157000731458F4530C5718732C07C0B70180E24A
:1015800090E02C877BD073942C857314B8F304C03F
:10159000731410F4371801C0312C24FF11C0B701A7
:1015A00080E390E02C876AD02C8522FF1CC021FFAD
:1015B00003C088E590E002C088E790E0B7010CC066
:1015C000822F867881F021FD02C080E201C08BE28B
:1015D00027FD8DE2B70190E051D005C0B70180E34F
:1015E00090E04CD05A94A514C8F3AA94F401EA0DE3
:1015F000F11DB701808190E041D0A110F6CF05C068
:10160000B70180E290E03AD03A943110F9CF50CE51
:10161000F7012681378102C02FEF3FEFC9012C96D9
:101620000FB6F894DEBF0FBECDBFDF91CF911F91F3
:101630000F91FF90EF90DF90CF90BF90AF909F9071
:101640008F907F906F905F904F903F902F90089574
:10165000FC010590615070400110D8F7809590957D
:101660008E0F9F1F0895FC01615070400190011082
:10167000D8F7809590958E0F9F1F08950F931F9315
:10168000CF93DF938C01EB018B8181FD03C00FEFC2
:101690001FEF1AC082FF0DC02E813F818C819D817A
:1016A0002817390764F4E881F9810193F983E88305
:1016B00006C0E885F985802F1995892B41F78E8121
:1016C0009F8101969F838E83C801DF91CF911F91E7
:1016D0000F910895FA01AA27283051F1203181F1A4
:1016E000E8946F936E7F6E5F7F4F8F4F9F4FAF4F2A
:1016F000B1E03ED0B4E03CD0670F781F891F9A1F3D
:10170000A11D680F791F8A1F911DA11D6A0F711DF0
:10171000811D911DA11D20D009F468943F912AE0FC
:10172000269F11243019305D3193DEF6CF010895E4
:10173000462F4770405D4193B3E00FD0C9F7F6CF15
:10174000462F4F70405D4A3318F0495D31FD4052DD
:10175000419302D0A9F7EACFB4E0A6959795879573
:1017600077956795BA95C9F7009761057105089552
:101770009B01AC010A2E06945795479537952795FE
:10178000BA95C9F7620F731F841F951FA01D089596
:04179000F894FFCFFB
:101794000000000300000000A803E60300005374E7
:1017A4006570204C656674005374657020526967D7
:1017B40068740025640A0053746F70000A657272BD
:1017C4006F720025690A004572726563686E6574FC
:1017D400652044697374616E7A3A20256920636DCB
:1017E4000A005374617274696E6700496E697469A2
:1017F400616C697A6174696F6E20636F6D706C657A
:10180400746521004175746F206D6F6465210A0051
:101814004F62737461636C6520696E2052616E67F8
:0E182400650061667465722073746F70000059
:00000001FF
